{
  "contractName": "Ferris",
  "abi": [
    {
      "constant": true,
      "inputs": [],
      "name": "beneficiary",
      "outputs": [
        {
          "name": "",
          "type": "address"
        }
      ],
      "payable": false,
      "stateMutability": "view",
      "type": "function"
    },
    {
      "inputs": [],
      "payable": false,
      "stateMutability": "nonpayable",
      "type": "constructor"
    },
    {
      "anonymous": false,
      "inputs": [
        {
          "indexed": false,
          "name": "bidder",
          "type": "address"
        },
        {
          "indexed": false,
          "name": "amount",
          "type": "uint256"
        }
      ],
      "name": "NewBid",
      "type": "event"
    },
    {
      "anonymous": false,
      "inputs": [
        {
          "indexed": false,
          "name": "bidder",
          "type": "address"
        },
        {
          "indexed": false,
          "name": "amount",
          "type": "uint256"
        }
      ],
      "name": "AcceptedBid",
      "type": "event"
    },
    {
      "constant": false,
      "inputs": [],
      "name": "bid",
      "outputs": [],
      "payable": true,
      "stateMutability": "payable",
      "type": "function"
    },
    {
      "constant": false,
      "inputs": [],
      "name": "withdraw",
      "outputs": [
        {
          "name": "",
          "type": "bool"
        }
      ],
      "payable": false,
      "stateMutability": "nonpayable",
      "type": "function"
    },
    {
      "constant": false,
      "inputs": [
        {
          "name": "chosenBidder",
          "type": "address"
        },
        {
          "name": "amount",
          "type": "uint256"
        }
      ],
      "name": "accept",
      "outputs": [],
      "payable": false,
      "stateMutability": "nonpayable",
      "type": "function"
    },
    {
      "constant": true,
      "inputs": [
        {
          "name": "addr",
          "type": "address"
        }
      ],
      "name": "getBid",
      "outputs": [
        {
          "name": "",
          "type": "uint256"
        }
      ],
      "payable": false,
      "stateMutability": "view",
      "type": "function"
    }
  ],
  "bytecode": "0x6060604052341561000f57600080fd5b336000806101000a81548173ffffffffffffffffffffffffffffffffffffffff021916908373ffffffffffffffffffffffffffffffffffffffff1602179055506105c38061005e6000396000f30060606040526004361061006d576000357c0100000000000000000000000000000000000000000000000000000000900463ffffffff1680631998aeef1461007257806338af3eed1461007c5780633ccfd60b146100d1578063c8b342ab146100fe578063cd67571c1461014b575b600080fd5b61007a61018d565b005b341561008757600080fd5b61008f610247565b604051808273ffffffffffffffffffffffffffffffffffffffff1673ffffffffffffffffffffffffffffffffffffffff16815260200191505060405180910390f35b34156100dc57600080fd5b6100e461026c565b604051808215151515815260200191505060405180910390f35b341561010957600080fd5b610135600480803573ffffffffffffffffffffffffffffffffffffffff16906020019091905050610388565b6040518082815260200191505060405180910390f35b341561015657600080fd5b61018b600480803573ffffffffffffffffffffffffffffffffffffffff169060200190919080359060200190919050506103d1565b005b34600160003373ffffffffffffffffffffffffffffffffffffffff1673ffffffffffffffffffffffffffffffffffffffff168152602001908152602001600020600082825401925050819055507fdd0b6c6a77960e2066c96171b4d7ac9e8b4c184011f38544afa36a5bb63ec59f3334604051808373ffffffffffffffffffffffffffffffffffffffff1673ffffffffffffffffffffffffffffffffffffffff1681526020018281526020019250505060405180910390a1565b6000809054906101000a900473ffffffffffffffffffffffffffffffffffffffff1681565b6000806000600160003373ffffffffffffffffffffffffffffffffffffffff1673ffffffffffffffffffffffffffffffffffffffff168152602001908152602001600020541115156102bd57600080fd5b600160003373ffffffffffffffffffffffffffffffffffffffff1673ffffffffffffffffffffffffffffffffffffffff1681526020019081526020016000205490506000600160003373ffffffffffffffffffffffffffffffffffffffff1673ffffffffffffffffffffffffffffffffffffffff168152602001908152602001600020819055503373ffffffffffffffffffffffffffffffffffffffff166108fc829081150290604051600060405180830381858888f19350505050151561038457600080fd5b5090565b6000600160008373ffffffffffffffffffffffffffffffffffffffff1673ffffffffffffffffffffffffffffffffffffffff168152602001908152602001600020549050919050565b6000809054906101000a900473ffffffffffffffffffffffffffffffffffffffff1673ffffffffffffffffffffffffffffffffffffffff163373ffffffffffffffffffffffffffffffffffffffff1614151561042c57600080fd5b80600160008473ffffffffffffffffffffffffffffffffffffffff1673ffffffffffffffffffffffffffffffffffffffff168152602001908152602001600020541015151561047a57600080fd5b6000809054906101000a900473ffffffffffffffffffffffffffffffffffffffff1673ffffffffffffffffffffffffffffffffffffffff166108fc829081150290604051600060405180830381858888f1935050505015156104db57600080fd5b80600160008473ffffffffffffffffffffffffffffffffffffffff1673ffffffffffffffffffffffffffffffffffffffff168152602001908152602001600020600082825403925050819055507fdefdc4699ae6600934634bec71e3e4081368537fb24e45ea245b17b8c448c3918282604051808373ffffffffffffffffffffffffffffffffffffffff1673ffffffffffffffffffffffffffffffffffffffff1681526020018281526020019250505060405180910390a150505600a165627a7a72305820e14fb24326ddbdcbdd27735c8a2bc584babe0bcea6dddfd7257448599ddcc09e0029",
  "source": "pragma solidity ^0.4.17;\n\ncontract Ferris {\n  // Parameters of the auction. \n  address public beneficiary;\n\n\n  // Allowed withdrawals of previous bids\n  mapping(address => uint) bids;\n\n\n  // Events that will be fired on changes.\n  event NewBid(address bidder, uint amount);\n  event AcceptedBid(address bidder, uint amount);\n\n  /// Create a Ferris with a single beneficiary\n  function Ferris() {\n    beneficiary = msg.sender;\n  }\n\n  /// Bid for a ferris ride\n  function bid() payable {\n    bids[msg.sender] += msg.value;\n    emit NewBid(msg.sender, msg.value);\n  }\n\n  /// Withdraw amount.\n  function withdraw() returns (bool) {\n    require (bids[msg.sender] > 0);\n    uint amount = bids[msg.sender];\n    bids[msg.sender] = 0;\n    require(msg.sender.send(amount));\n  }\n\n  /// Accept the funds of the chosen bidder\n  function accept(address chosenBidder, uint amount) {\n    require (msg.sender == beneficiary);\n    require (bids[chosenBidder] >= amount);\n    require (beneficiary.send(amount));\n    bids[chosenBidder] -= amount;\n    emit AcceptedBid(chosenBidder, amount);\n  }\n  \n  function getBid(address addr) public view returns(uint) {\n    return bids[addr];\n  }\n}\n\n\n  ",
  "sourcePath": "/Users/nathik/Downloads/EthereumTest/FerrisWheel/contracts/Ferris.sol",
  "compiler": {
    "name": "solc",
    "version": "0.4.21+commit.dfe3193c.Emscripten.clang"
  },
  "schemaVersion": "2.0.0",
  "updatedAt": "2018-03-31T22:20:30.284Z"
}