{
  "contractName": "MetaCoin",
  "abi": [
    {
      "inputs": [],
      "payable": false,
      "stateMutability": "nonpayable",
      "type": "constructor"
    },
    {
      "anonymous": false,
      "inputs": [
        {
          "indexed": true,
          "name": "_from",
          "type": "address"
        },
        {
          "indexed": true,
          "name": "_to",
          "type": "address"
        },
        {
          "indexed": false,
          "name": "_value",
          "type": "uint256"
        }
      ],
      "name": "Transfer",
      "type": "event"
    },
    {
      "constant": true,
      "inputs": [
        {
          "name": "amount",
          "type": "uint256"
        },
        {
          "name": "conversionRate",
          "type": "uint256"
        }
      ],
      "name": "convert",
      "outputs": [
        {
          "name": "convertedAmount",
          "type": "uint256"
        }
      ],
      "payable": false,
      "stateMutability": "pure",
      "type": "function"
    },
    {
      "constant": false,
      "inputs": [
        {
          "name": "receiver",
          "type": "address"
        },
        {
          "name": "amount",
          "type": "uint256"
        }
      ],
      "name": "sendCoin",
      "outputs": [
        {
          "name": "sufficient",
          "type": "bool"
        }
      ],
      "payable": false,
      "stateMutability": "nonpayable",
      "type": "function"
    },
    {
      "constant": true,
      "inputs": [
        {
          "name": "addr",
          "type": "address"
        }
      ],
      "name": "getBalanceInEth",
      "outputs": [
        {
          "name": "",
          "type": "uint256"
        }
      ],
      "payable": false,
      "stateMutability": "view",
      "type": "function"
    },
    {
      "constant": true,
      "inputs": [
        {
          "name": "addr",
          "type": "address"
        }
      ],
      "name": "getBalance",
      "outputs": [
        {
          "name": "",
          "type": "uint256"
        }
      ],
      "payable": false,
      "stateMutability": "view",
      "type": "function"
    }
  ],
  "bytecode": "0x6060604052341561000f57600080fd5b6127106000803273ffffffffffffffffffffffffffffffffffffffff1673ffffffffffffffffffffffffffffffffffffffff16815260200190815260200160002081905550610391806100636000396000f300606060405260043610610062576000357c0100000000000000000000000000000000000000000000000000000000900463ffffffff1680637bd703e81461006757806390b98a11146100b457806396e4ee3d1461010e578063f8b2cb4f1461014e575b600080fd5b341561007257600080fd5b61009e600480803573ffffffffffffffffffffffffffffffffffffffff1690602001909190505061019b565b6040518082815260200191505060405180910390f35b34156100bf57600080fd5b6100f4600480803573ffffffffffffffffffffffffffffffffffffffff169060200190919080359060200190919050506101b7565b604051808215151515815260200191505060405180910390f35b341561011957600080fd5b6101386004808035906020019091908035906020019091905050610310565b6040518082815260200191505060405180910390f35b341561015957600080fd5b610185600480803573ffffffffffffffffffffffffffffffffffffffff1690602001909190505061031d565b6040518082815260200191505060405180910390f35b60006101b06101a98361031d565b6002610310565b9050919050565b6000816000803373ffffffffffffffffffffffffffffffffffffffff1673ffffffffffffffffffffffffffffffffffffffff168152602001908152602001600020541015610208576000905061030a565b816000803373ffffffffffffffffffffffffffffffffffffffff1673ffffffffffffffffffffffffffffffffffffffff16815260200190815260200160002060008282540392505081905550816000808573ffffffffffffffffffffffffffffffffffffffff1673ffffffffffffffffffffffffffffffffffffffff168152602001908152602001600020600082825401925050819055508273ffffffffffffffffffffffffffffffffffffffff163373ffffffffffffffffffffffffffffffffffffffff167fddf252ad1be2c89b69c2b068fc378daa952ba7f163c4a11628f55a4df523b3ef846040518082815260200191505060405180910390a3600190505b92915050565b6000818302905092915050565b60008060008373ffffffffffffffffffffffffffffffffffffffff1673ffffffffffffffffffffffffffffffffffffffff1681526020019081526020016000205490509190505600a165627a7a723058204d7a7fb3a60b4fbe0541163ac581833d717396ce863642715e421a78da50c9cf0029",
  "source": "pragma solidity ^0.4.17;\n\ncontract Ferris {\n  // Parameters of the auction. \n  address public beneficiary;\n\n\n  // Allowed withdrawals of previous bids\n  mapping(address => uint) bids;\n\n\n  // Events that will be fired on changes.\n  event NewBid(address bidder, uint amount);\n  event AcceptedBid(address bidder, uint amount);\n\n  /// Create a Ferris with a single beneficiary\n  function Ferris() {\n    beneficiary = msg.sender;\n  }\n\n  /// Bid for a ferris ride\n  function bid() payable {\n    bids[msg.sender] += msg.value;\n    emit NewBid(msg.sender, msg.value);\n  }\n\n  /// Withdraw amount.\n  function withdraw() returns (bool) {\n    uint amount = bids[msg.sender];\n    if (amount > 0) {\n      // It is important to set this to zero because the recipient\n      // can call this function again as part of the receiving call\n      // before `send` returns.\n      bids[msg.sender] = 0;\n\n      if (!msg.sender.send(amount)) {\n        // No need to call throw here, just reset the amount owing\n        bids[msg.sender] = amount;\n        return false;\n      }\n    }\n    return true;\n  }\n\n  /// Accept the funds of the chosen bidder\n  function accept(address chosenBidder, uint amount) {\n    require (msg.sender == beneficiary);\n    require (bids[chosenBidder] >= amount);\n    require (beneficiary.send(amount));\n    bids[chosenBidder] -= amount;\n    emit AcceptedBid(chosenBidder, amount);\n  }\n  \n  function getBid(address addr) public view returns(uint) {\n    return bids[addr];\n  }\n}\n\ncontract MetaCoin {\n    \n    function convert(uint amount,uint conversionRate) public pure returns (uint convertedAmount)\n  {\n    return amount * conversionRate;\n  }\n  \n  mapping (address => uint) balances;\n\n  event Transfer(address indexed _from, address indexed _to, uint256 _value);\n\n  function MetaCoin() public {\n    balances[tx.origin] = 10000;\n  }\n\n  function sendCoin(address receiver, uint amount) public returns(bool sufficient) {\n    if (balances[msg.sender] < amount) return false;\n    balances[msg.sender] -= amount;\n    balances[receiver] += amount;\n    Transfer(msg.sender, receiver, amount);\n    return true;\n  }\n\n  function getBalanceInEth(address addr) public view returns(uint){\n    return convert(getBalance(addr),2);\n  }\n\n  function getBalance(address addr) public view returns(uint) {\n    return balances[addr];\n  }\n}\n  ",
  "sourcePath": "/Users/nathik/Downloads/EthereumTest/FerrisWheel/contracts/Ferris.sol",
  "compiler": {
    "name": "solc",
    "version": "0.4.21+commit.dfe3193c.Emscripten.clang"
  },
  "schemaVersion": "2.0.0",
  "updatedAt": "2018-03-30T22:02:27.812Z"
}